:100000000C9434000C9446000C9446000C9446006A
:100010000C9466000C9446000C9446000C94460028
:100020000C9446000C9446000C9446000C94460038
:100030000C9446000C9446000C948E000C944600E0
:100040000C9446000C9446000C9446000C94460018
:100050000C9446000C9446000C9446000C94460008
:100060000C9446000C94460011241FBECFEFD8E03C
:10007000DEBFCDBF21E0A0E0B1E001C01D92A33002
:10008000B207E1F70E94AC000C94B2000C9400009F
:100090008FEF8AB91BB817B888B9E8E6F0E080811D
:1000A00082608083ECE6F0E080818360808384B5A9
:1000B000826084BD85B5836085BD89EF87BDEEE62E
:1000C000F0E0808182608083789408951F920F927F
:1000D0000FB60F9211248F9330990CC080910101BB
:1000E000811108C0809102018F5F8093020188EC2A
:1000F0008093010131990CC080910001811108C0E9
:100100008091020181508093020188EC809300016C
:100110008F910F900FBE0F901F9018951F920F9206
:100120000FB60F9211248F9380910101882329F03B
:100130008091010181508093010180910001882309
:1001400029F0809100018150809300018F910F90E0
:100150000FBE0F901F9018950E94480080910201D9
:080160008BB9FCCFF894FFCF2E
:00000001FF
