:100000000C9434000C9451000C9451000C94510049
:100010000C9490000C9451000C9451000C945100DD
:100020000C9451000C9451000C9451000C9451000C
:100030000C9451000C9451000C94B8000C94510095
:100040000C9451000C9451000C9451000C945100EC
:100050000C9451000C9424010C9451000C94510008
:100060000C9451000C94510011241FBECFEFD8E026
:10007000DEBFCDBF11E0A0E0B1E0EEE7F2E002C0EC
:1000800005900D92A031B107D9F721E0A0E1B1E0D0
:1000900001C01D92A531B207E1F70E9486000C94C1
:1000A0003D010C9400008FEF8AB91BB884B915B8D4
:1000B00017B888B988B18B7F88B90895E8E6F0E071
:1000C000808182608083ECE6F0E0808183608083C1
:1000D000089584B5826084BD85B5836085BD89EF50
:1000E00087BDEEE6F0E08081826080830895ECE7D2
:1000F000F0E0108282E68083EAE7F0E010828081FF
:100100008F68808380818064808308950E945E0070
:100110000E9469000E9453000E9477007894FFCFEC
:100120001F920F920FB60F9211248F9330990CC02B
:1001300080911201811108C0809114018F5F80931A
:10014000140188EC8093120131990CC08091110147
:10015000811108C08091140181508093140188ECB2
:10016000809311018F910F900FBE0F901F901895E3
:100170001F920F920FB60F9211248F939F93EF93BC
:10018000FF9380911201882329F080911201815000
:100190008093120180911101882329F0809111012F
:1001A00081508093110180911001813099F018F0F5
:1001B000823001F128C085B1887F85B9E0911301B3
:1001C000EF70F0E0E050FF4F80818BB985B1816026
:1001D00085B919C085B1887F85B9E0911301E29591
:1001E000EF70F0E0E050FF4F80818BB985B1826005
:1001F00085B909C085B1887F85B9809114018BB913
:1002000085B1846085B9809110018F5F8093100162
:1002100080911001833010F0109210019091130121
:1002200080911401891720F485B1886185B903C0D4
:1002300085B1877E85B9FF91EF919F918F910F9046
:100240000FBE0F901F9018951F920F920FB60F922E
:1002500011248F93EF93FF93809179008093130182
:10026000EAE7F0E0808180648083FF91EF918F91D5
:0E0270000F900FBE0F901F901895F894FFCFBF
:10027E003F065B4F666D7D077F6F777C395E7971C8
:00000001FF
